{
  "transactions": [
    {
      "hash": "0x6aa86d00b0ce29268cca6c4ac86edb65157aa06aea8ec9c98c24a85658ad8d18",
      "transactionType": "CALL",
      "contractName": null,
      "contractAddress": "0x818af030f68682b30f455536d0c779db9b07b445",
      "function": "updateSettler(address)",
      "arguments": [
        "0x0487Ecf457cEAdc4Be25676EDE5F634fdcDdbF4d"
      ],
      "transaction": {
        "from": "0xcc4a81f07d9e925e90873349c903e3fe93099b0a",
        "to": "0x818af030f68682b30f455536d0c779db9b07b445",
        "gas": "0xa705",
        "value": "0x0",
        "input": "0x6d149b0f0000000000000000000000000487ecf457ceadc4be25676ede5f634fdcddbf4d",
        "nonce": "0x14",
        "chainId": "0x14a34"
      },
      "additionalContracts": [],
      "isFixedGasLimit": false
    }
  ],
  "receipts": [
    {
      "status": "0x1",
      "cumulativeGasUsed": "0x41e02e",
      "logs": [
        {
          "address": "0x818af030f68682b30f455536d0c779db9b07b445",
          "topics": [
            "0x7c72fae177c59a6c85f9a5eca78d204b4a8ad5b668e5beb8c24464870af7160c",
            "0x000000000000000000000000cc4a81f07d9e925e90873349c903e3fe93099b0a",
            "0x0000000000000000000000000487ecf457ceadc4be25676ede5f634fdcddbf4d"
          ],
          "data": "0x",
          "blockHash": "0xe6756777566724a6ba76a97a27973948c464fc5729cc2db6df3e7738a4a88790",
          "blockNumber": "0x1fba241",
          "blockTimestamp": "0x690aa362",
          "transactionHash": "0x6aa86d00b0ce29268cca6c4ac86edb65157aa06aea8ec9c98c24a85658ad8d18",
          "transactionIndex": "0xc",
          "logIndex": "0xb2",
          "removed": false
        }
      ],
      "logsBloom": "0x00000000000000000000000000000000000000000000000000000000000000000000008000000000000000000000000000000000000000001000000000000000000000000000000000000000000000000000000000000000000000000000000000000000000000000000000100000000000000000000000000004000000000001000000002000000000000000000000004100000000008080000000000000000000000000000000000000000000200000000000000000000000000000000000000000000000000000000000000004000000000000000000000000000000000000000000000000000000000000000000000000000000000000000000000000000",
      "type": "0x2",
      "transactionHash": "0x6aa86d00b0ce29268cca6c4ac86edb65157aa06aea8ec9c98c24a85658ad8d18",
      "transactionIndex": "0xc",
      "blockHash": "0xe6756777566724a6ba76a97a27973948c464fc5729cc2db6df3e7738a4a88790",
      "blockNumber": "0x1fba241",
      "gasUsed": "0x78ec",
      "effectiveGasPrice": "0xf4290",
      "from": "0xcc4a81f07d9e925e90873349c903e3fe93099b0a",
      "to": "0x818af030f68682b30f455536d0c779db9b07b445",
      "contractAddress": null,
      "l1BaseFeeScalar": "0x44d",
      "l1BlobBaseFee": "0x1",
      "l1BlobBaseFeeScalar": "0xa118b",
      "l1Fee": "0x117",
      "l1GasPrice": "0x8",
      "l1GasUsed": "0x640"
    }
  ],
  "libraries": [],
  "pending": [],
  "returns": {},
  "timestamp": 1762304864,
  "chain": 84532,
  "commit": null
}